:1000000014C02CC04EC02AC029C028C05EC026C063
:1000100025C024C023C022C021C020C01FC01EC0D4
:100020001DC01CC01BC01AC019C011241FBECFEDBB
:10003000CDBF10E0A0E6B0E0E0EDF2E002C0059038
:100040000D92AC36B107D9F720E0ACE6B0E001C0C4
:100050001D92A437B207E1F7E6D038C1D1CF969808
:10006000D998D89818BA85E0809360008091710083
:10007000909172000197909372008093710085B700
:10008000806585BF85B7806285BF85B7837F85BF63
:100090008BB780688BBF7894889585B78F7D85BF37
:1000A00008951F920F920FB60F9211241BBE0F904E
:1000B0000FBE0F901F90189583E882BF82E083BF28
:1000C00089B7826089BF789408951F920F920FB606
:1000D0000F9211242F933F934F935F936F937F93CE
:1000E0008F939F93AF93BF93EF93FF9383E882BF68
:1000F00080916E0090916F0001968330910528F4F5
:1001000090936F0080936E0063C010926F00109206
:100110006E00969AD99AD89A809161008130B9F48C
:10012000809171009091720068EE73E0BBD064E63C
:1001300070E0B8D06AE070E0B5D0FC01EE59FF4F36
:10014000808188BBD99AD89A969882E03FC0823045
:10015000F9F4809171009091720068EE73E0A2D082
:1001600064E670E09FD06AE070E09CD0FB01EE593D
:10017000FF4F808188BB969AD89A611106C0809102
:100180007100909172000B9708F0D99883E01EC01F
:100190008330F1F4809171009091720068EE73E009
:1001A00081D064E670E07ED0FB01EE59FF4F808184
:1001B00088BB969AD99A611107C08091710090917D
:1001C00072008536910508F0D89881E0809361002F
:1001D00080916C0090916D000196893E23E092071A
:1001E00028F490936D0080936C000CC010926D0009
:1001F00010926C00809160008150809360008111AA
:1002000001C02DDFFF91EF91BF91AF919F918F9131
:100210007F916F915F914F913F912F910F900FBE02
:100220000F901F9018958A988B98929A939A8E9A0D
:10023000D19AD09A9698D998D8988FEF87BB80E8B2
:1002400088BB3ADF25E0829B03C08399FCCF0DC0B9
:1002500010927200109271008FE493EC0197F1F705
:1002600000C00000829BFECFF0CF80917100909182
:1002700072000196883E33E0930729F09093720054
:100280008093710004C0109272001092710020934C
:1002900060008FE493EC0197F1F700C00000839BAE
:1002A000FECFD1CFAA1BBB1B51E107C0AA1FBB1FAA
:1002B000A617B70710F0A61BB70B881F991F5A95F2
:1002C000A9F780959095BC01CD010895F894FFCFD2
:0C02D0000503BF86DBCFE6EDFD87FFEFE6
:00000001FF
